:020000040800F2
:100000000804002001010008B30A0008030A0008E0
:10001000B10A000849010008890B0008000000002F
:10002000000000000000000000000000D70A0008E7
:100030004B01000800000000D50A0008D90A00089A
:100040001B0100081B0100081B0100081B01000820
:100050001B0100081B0100081B0100081B01000810
:100060001B0100081B0100081B0100081B01000800
:100070001B0100081B0100081B0100081B010008F0
:100080001B0100081B0100081B0100081B010008E0
:100090001B0100081B0100081B0100084D0100089E
:1000A0001B0100081B0100081B0100081B010008C0
:1000B0001B0100081B0100081B0100081B010008B0
:1000C0001B0100081B0100081B0100081B010008A0
:1000D0001B0100081B0100081B0100081B01000890
:1000E0001B0100081B0100081B010008DFF80CD0F1
:1000F00000F018F800480047A90B00080804002089
:100100000648804706480047FEE7FEE7FEE7FEE7B1
:10011000FEE7FEE7FEE7FEE7FEE7FEE7410B00082D
:10012000ED000008064C074D06E0E06840F00103D2
:1001300094E8070098471034AC42F6D3FFF7DAFF93
:10014000EC0B00080C0C0008FEE77047084810B5DF
:100150000168490601D54021016001221146054888
:1001600000F009F9BDE81040402000F015B800008B
:1001700014040140000C014031B500F001F9009C6D
:100180000546601C00D0641C00F0FAF8401BA04239
:10019000FAD338BD70470000044910B50A6802421E
:1001A00002D00860FFF7F6FF10BD00001404014004
:1001B0002DE9F84FDFF890A100220AF1040B144654
:1001C00001274FF00F090BF1040E00BF0B6807FA6F
:1001D00004F52B40AB4274D1DFF870C14E68A6EB3A
:1001E0000C0866452BD00DDC032E34D005DC36B36D
:1001F000012E19D0022E2FD11BE0112E16D0122E57
:100200002AD119E0B8F5881F19D006DCB8F5803F6F
:1002100015D0B8F5801F1FD111E0B8F5001F0ED022
:10022000B8F5041F18D10AE0CA6815E0CA68121DA3
:1002300012E0CA6808320FE0CA680C320CE08A6823
:100240002AB1012A4FF0080203D0456104E00422DC
:1002500002E0056100E00022FF2B01D8064601E024
:1002600000F104064FEA840501D9A5F12005D6F86E
:1002700000C009FA05F82CEA080C02FA05F54CEA68
:10028000050CC6F800C04D68ED0057D5304DAE697D
:1002900046F00106AE61AD6924F0030605F00105E4
:1002A00000952C4D06EB050CDCF80850A6074FEA2C
:1002B000167809FA08F6B543274EB04202D1002657
:1002C00010E03BE0254EB04201D101260AE0244E69
:1002D000B04201D1022605E0224EB04201D10326F0
:1002E00000E0042606FA08F62E43CCF808604D68B4
:1002F000DAF80060ED03554601D51E4300E09E4349
:100300002E604D68DBF80060AD035D4601D51E43ED
:1003100000E09E432E604D68DEF80060ED027546F9
:1003200001D51E4300E09E432E604D68AD020E4D88
:100330002E6801D51E4300E09E432E60641C102CE5
:10034000FFF444AFBDE8F88F000401400000111035
:10035000001002400000014000080140000C014074
:1003600000100140001401400C0401408068084066
:1003700000D0012070470AB1016170470904FBE712
:10038000014800687047000004000020024801682E
:10039000491C01607047000004000020074810B5A8
:1003A000016841F010010160032000F08BF800208B
:1003B00000F006F800F018F8002010BD0020024000
:1003C00010B5044607484FF47A710068B0FBF1F0AD
:1003D00000F0FFFA00222146501E00F053F80020E2
:1003E00010BD0000000000201E4808B5816941F0E2
:1003F00001018161806900F001000090032000F09C
:1004000061F8002211466FF00B0000F03BF800226B
:1004100011466FF00A0000F035F8002211466FF027
:10042000090000F02FF800221146501F00F02AF8B2
:1004300000221146101F00F025F800221146901EE0
:1004400000F020F800221146501E00F01BF806486C
:10045000416821F0E0614160416841F00071416014
:1004600008BD0000001002400000014000F01F0223
:10047000012191404009800000F1E020C0F8001106
:1004800070470000F0B40E4B1B680C46C3F3022308
:10049000C3F10705042D00D90425191D072901D230
:1004A000002300E0DB1E012606FA05F1491E21406B
:1004B00099409E40761E16403143F0BC00F0FABAD7
:1004C0000CED00E0064900F0070208684FF6FF0354
:1004D000184040EA0220034A1043086070470000B9
:1004E0000CED00E00000FA052DE9F047DFF83C8153
:1004F00005460E46D8F8000000F00700B0420CD2C6
:10050000D8F8001021F007013143C8F80010D8F8DE
:10051000000000F00700B04263D12878444C800707
:1005200005D56068A96820F0F0000843606028786D
:10053000C00745D06868012816D02168022816D067
:10054000890700294DDA616821F0030101436160E8
:10055000FFF716FF6968074641F2883001290FD07E
:100560000229814619D027E021688903E9E789013A
:10057000E7E700BFFFF704FFC11B494501D918E0B9
:1005800081466068C0F381000128F3D118E000BF04
:10059000FFF7F6FEC11B49450BD86068C0F3810028
:1005A0000228F5D10CE000BFFFF7EAFEC11B494568
:1005B00002D90320BDE8F087606810F00C0FF3D17A
:1005C000D8F80010404601F00701B1420BD901688C
:1005D00021F0070131430160006800F00700B042DC
:1005E00001D00120E6E72878400705D56068E96872
:1005F00020F4E060084360602878000706D5606852
:10060000296920F4605040EAC100606000F01CF8E5
:100610006168084AC1F30311515CC840064908608B
:100620000020FFF7CDFE0020C4E7000000200240BC
:1006300000100240DC0B00080000002001480068A8
:10064000704700000000002010B512A385B00FCB4A
:100650008DE80F0013A0144B006804905A681348EB
:1006600002F00C0104290FD008290DD1C2F38344F4
:10067000D2031DF8041009D55A6804ABC2F34042F6
:100680009A5CB0FBF2F0484305B010BD08484843FF
:10069000FAE7000002030405060708090A0B0C0D1F
:1006A0000E0F1010010200000010024000127A002C
:1006B00000093D002DE9F84F04460078B94DC00708
:1006C00048D06868C0F38100012807D06868C0F38B
:1006D0008100022809D16868C00306D52868800314
:1006E00038D5606800286FD034E06068B0F5803F8E
:1006F0000BD010B1B0F5A02F11D0286820F48030B5
:100700002860286820F4802002E0286840F48030C7
:100710002860606888B1FFF733FE064609E0286864
:1007200040F480202860F0E7FFF72AFE801B642851
:1007300075D828688003F7D50CE0FFF721FE064640
:1007400005E000BFFFF71CFE801B6428F0D8286876
:100750008003F7D42078944E80074FF001094FF0C2
:1007600000083BD5686810F00C0F07D06868C0F32C
:100770008100022809D16868C00306D42868800770
:1007800014D5206901281FD110E02069B0B1C6F846
:100790000090FFF7F5FD074605E000BFFFF7F0FD0D
:1007A000C01B0228C4D828688007F7D5286861696B
:1007B00020F0F80040EAC10028600FE0C6F8008091
:1007C000FFF7DEFD074606E0E9E000BFFFF7D8FDD2
:1007D000C01B022823D828688007F7D42078000798
:1007E0002CD57248A169D9B1C0F80090FFF7C8FDB7
:1007F000074604E0FFF7C4FDC01B02280FD8686A53
:100800008007F7D56A484FF4FA510068B0FBF1F061
:10081000009000BF0098411E0091FAD20EE080E0E7
:10082000C0F80080FFF7ACFD074604E0FFF7A8FD25
:10083000C01B022875D8686A8007F7D42078400763
:1008400060D5E8690027C00008D4E86940F080500E
:10085000E861E869012700F0805000905548016880
:10086000C90513D40168834641F480710160FFF724
:1008700087FD824606E000BFFFF782FDA0EB0A007D
:1008800064284ED8DBF80000C005F5D5E0680128E3
:100890000AD008B1052813D0286A20F00100286288
:1008A000286A20F0040002E0286A40F00100286273
:1008B000E06841F2883B98B1FFF762FD82460BE0A9
:1008C000286A40F004002862EEE700BFFFF758FDF9
:1008D000A0EB0A0159455AD8286A8007F6D50CE0E2
:1008E000FFF74EFD824605E0FFF74AFDA0EB0A0147
:1008F00059454CD8286A8007F6D41FB1E86920F022
:100900008050E861E06988B36968C1F38101022918
:1009100045D00228C6F8608004D0FFF731FD0446B8
:1009200038E034E0FFF72CFD074604E0FFF728FD30
:10093000C01B02282BD828688001F7D4206AB0F5A4
:10094000803F05D16868A16820F4003008436860E2
:10095000D4E908010843696821F474110843686008
:10096000C6F86090FFF70CFD044606E015E000BFF6
:10097000FFF706FD001B022809D828688001F7D57B
:100980000BE000BFFFF7FCFC001B022802D903208C
:10099000BDE8F88F28688001F4D40020F8E7012032
:1009A000F6E700000010024000004242800442428C
:1009B00000000020007000404FF0E021042808698A
:1009C00003D020F004000861704740F00400FAE70B
:1009D000704710B5401EB0F1807F01D3012010BDDB
:1009E0004FF0E02460610F21601700F063F80020F1
:1009F000A06107202061002010BD10B5FFF7E8FFBF
:100A000010BDFEE7F0B5264885B0816941F00401CC
:100A10008161816901F004010491816941F008015B
:100A2000816180691F4E00F008000490002230218F
:100A30003046FFF7A0FC1C4F002207213846FFF785
:100A40009AFC30200124CDE9000402256946039573
:100A50003046FFF7ADFB402000901448CDE901047B
:100A600069463046FFF7A4FB8020009000200190EB
:100A7000029069463046FFF79BFB0720CDE9000452
:100A8000694603953846FFF793FB0022114617206D
:100A9000FFF7F8FC1720FFF7E9FC05B0F0BD0000F8
:100AA0000010024000080140000C0140000021102D
:100AB000FEE770470907090E002806DA00F00F006C
:100AC00000F1E02080F8141D704700F1E02080F86C
:100AD000001470477047704710B5FFF757FCBDE82A
:100AE0001040FFF78ABF10B590B00220009001209F
:100AF000049010200024059007946846FFF7DAFD63
:100B000000B1FEE70F20CDE90A040C940D940021FA
:100B10000AA80E94FFF7E8FC00B1FEE7FFF78EFD90
:100B20004FF47A71B0FBF1F0FFF753FF0420FFF7A9
:100B300043FF00221146501EFFF7A4FC10B010BD69
:100B40000D48016841F00101016041680B4A114004
:100B5000416001680A4A11400160016821F4802166
:100B60000160416821F4FE0141604FF41F01816082
:100B70000449C00308607047001002400000FFF8FD
:100B8000FFFFF6FE08ED00E0FEE702E008C8121FD6
:100B900008C1002AFAD170477047002001E001C166
:100BA000121F002AFBD17047FFF7F8FBFFF79BFFEE
:100BB000FFF728FF084C4FF4FA6501212046FFF7A4
:100BC000D5FB0128F9D12846FFF7D6FA00220121EA
:100BD0002046FFF7D0FBF0E7000C014000000000CA
:100BE0000000000001020304060708090C0C0008BD
:100BF00000000020080000008A0B0008140C000808
:100C000008000020000400009A0B000800A24A041B
:040C100000000000E0
:04000005080000ED02
:00000001FF
